{
  "_format": "hh-sol-artifact-1",
  "contractName": "Marketplace",
  "sourceName": "src/backend/contracts/Marketplace.sol",
  "abi": [
    {
      "inputs": [
        {
          "internalType": "uint256",
          "name": "_feePercent",
          "type": "uint256"
        }
      ],
      "stateMutability": "nonpayable",
      "type": "constructor"
    },
    {
      "anonymous": false,
      "inputs": [
        {
          "indexed": false,
          "internalType": "uint256",
          "name": "itemId",
          "type": "uint256"
        },
        {
          "indexed": true,
          "internalType": "address",
          "name": "nft",
          "type": "address"
        },
        {
          "indexed": false,
          "internalType": "uint256",
          "name": "tokenId",
          "type": "uint256"
        },
        {
          "indexed": false,
          "internalType": "uint256",
          "name": "price",
          "type": "uint256"
        },
        {
          "indexed": true,
          "internalType": "address",
          "name": "seller",
          "type": "address"
        },
        {
          "indexed": true,
          "internalType": "address",
          "name": "buyer",
          "type": "address"
        }
      ],
      "name": "Bought",
      "type": "event"
    },
    {
      "anonymous": false,
      "inputs": [
        {
          "indexed": false,
          "internalType": "uint256",
          "name": "itemId",
          "type": "uint256"
        },
        {
          "indexed": true,
          "internalType": "address",
          "name": "nft",
          "type": "address"
        },
        {
          "indexed": false,
          "internalType": "uint256",
          "name": "tokenId",
          "type": "uint256"
        },
        {
          "indexed": false,
          "internalType": "uint256",
          "name": "price",
          "type": "uint256"
        },
        {
          "indexed": true,
          "internalType": "address",
          "name": "seller",
          "type": "address"
        }
      ],
      "name": "Offered",
      "type": "event"
    },
    {
      "stateMutability": "payable",
      "type": "fallback"
    },
    {
      "inputs": [
        {
          "internalType": "uint256",
          "name": "itemId",
          "type": "uint256"
        }
      ],
      "name": "_checkAuctionStatus",
      "outputs": [
        {
          "internalType": "bool",
          "name": "",
          "type": "bool"
        }
      ],
      "stateMutability": "view",
      "type": "function"
    },
    {
      "inputs": [
        {
          "internalType": "uint256",
          "name": "itemId",
          "type": "uint256"
        }
      ],
      "name": "_updateStatus",
      "outputs": [],
      "stateMutability": "nonpayable",
      "type": "function"
    },
    {
      "inputs": [
        {
          "internalType": "uint256",
          "name": "itemId",
          "type": "uint256"
        }
      ],
      "name": "bid",
      "outputs": [],
      "stateMutability": "payable",
      "type": "function"
    },
    {
      "inputs": [
        {
          "internalType": "uint256",
          "name": "itemId",
          "type": "uint256"
        }
      ],
      "name": "cancelListing",
      "outputs": [],
      "stateMutability": "nonpayable",
      "type": "function"
    },
    {
      "inputs": [
        {
          "internalType": "uint256",
          "name": "itemId",
          "type": "uint256"
        },
        {
          "internalType": "address",
          "name": "_msgSender",
          "type": "address"
        }
      ],
      "name": "cancellAuction",
      "outputs": [],
      "stateMutability": "payable",
      "type": "function"
    },
    {
      "inputs": [
        {
          "internalType": "uint256",
          "name": "itemId",
          "type": "uint256"
        },
        {
          "internalType": "address",
          "name": "_msgSender",
          "type": "address"
        }
      ],
      "name": "concludeAuction",
      "outputs": [],
      "stateMutability": "payable",
      "type": "function"
    },
    {
      "inputs": [
        {
          "internalType": "contract IERC721",
          "name": "_nft",
          "type": "address"
        },
        {
          "internalType": "uint256",
          "name": "_tokenId",
          "type": "uint256"
        },
        {
          "internalType": "uint256",
          "name": "_basePrice",
          "type": "uint256"
        },
        {
          "internalType": "uint256",
          "name": "endTime",
          "type": "uint256"
        }
      ],
      "name": "createAuction",
      "outputs": [],
      "stateMutability": "nonpayable",
      "type": "function"
    },
    {
      "inputs": [],
      "name": "feeAccount",
      "outputs": [
        {
          "internalType": "address payable",
          "name": "",
          "type": "address"
        }
      ],
      "stateMutability": "view",
      "type": "function"
    },
    {
      "inputs": [],
      "name": "feePercent",
      "outputs": [
        {
          "internalType": "uint256",
          "name": "",
          "type": "uint256"
        }
      ],
      "stateMutability": "view",
      "type": "function"
    },
    {
      "inputs": [
        {
          "internalType": "uint256",
          "name": "itemId",
          "type": "uint256"
        }
      ],
      "name": "getHighestBid",
      "outputs": [
        {
          "internalType": "uint256",
          "name": "",
          "type": "uint256"
        }
      ],
      "stateMutability": "view",
      "type": "function"
    },
    {
      "inputs": [
        {
          "internalType": "uint256",
          "name": "itemId",
          "type": "uint256"
        }
      ],
      "name": "getHighestBidder",
      "outputs": [
        {
          "internalType": "address",
          "name": "",
          "type": "address"
        }
      ],
      "stateMutability": "view",
      "type": "function"
    },
    {
      "inputs": [
        {
          "internalType": "uint256",
          "name": "itemId",
          "type": "uint256"
        }
      ],
      "name": "getLastTime",
      "outputs": [
        {
          "internalType": "uint256",
          "name": "",
          "type": "uint256"
        }
      ],
      "stateMutability": "view",
      "type": "function"
    },
    {
      "inputs": [
        {
          "internalType": "address",
          "name": "account",
          "type": "address"
        }
      ],
      "name": "getPendingReturns",
      "outputs": [
        {
          "internalType": "uint256",
          "name": "",
          "type": "uint256"
        }
      ],
      "stateMutability": "view",
      "type": "function"
    },
    {
      "inputs": [
        {
          "internalType": "uint256",
          "name": "itemId",
          "type": "uint256"
        }
      ],
      "name": "isAuction",
      "outputs": [
        {
          "internalType": "bool",
          "name": "",
          "type": "bool"
        }
      ],
      "stateMutability": "view",
      "type": "function"
    },
    {
      "inputs": [],
      "name": "itemCount",
      "outputs": [
        {
          "internalType": "uint256",
          "name": "",
          "type": "uint256"
        }
      ],
      "stateMutability": "view",
      "type": "function"
    },
    {
      "inputs": [
        {
          "internalType": "uint256",
          "name": "",
          "type": "uint256"
        }
      ],
      "name": "items",
      "outputs": [
        {
          "internalType": "uint256",
          "name": "itemId",
          "type": "uint256"
        },
        {
          "internalType": "contract IERC721",
          "name": "nft",
          "type": "address"
        },
        {
          "internalType": "uint256",
          "name": "tokenId",
          "type": "uint256"
        },
        {
          "internalType": "uint256",
          "name": "price",
          "type": "uint256"
        },
        {
          "internalType": "address payable",
          "name": "seller",
          "type": "address"
        },
        {
          "internalType": "bool",
          "name": "sold",
          "type": "bool"
        }
      ],
      "stateMutability": "view",
      "type": "function"
    },
    {
      "inputs": [
        {
          "internalType": "contract IERC721",
          "name": "_nft",
          "type": "address"
        },
        {
          "internalType": "uint256",
          "name": "_tokenId",
          "type": "uint256"
        },
        {
          "internalType": "uint256",
          "name": "_price",
          "type": "uint256"
        }
      ],
      "name": "makeItem",
      "outputs": [],
      "stateMutability": "nonpayable",
      "type": "function"
    },
    {
      "inputs": [
        {
          "internalType": "address",
          "name": "",
          "type": "address"
        },
        {
          "internalType": "uint256",
          "name": "",
          "type": "uint256"
        }
      ],
      "name": "payedBids",
      "outputs": [
        {
          "internalType": "uint256",
          "name": "",
          "type": "uint256"
        }
      ],
      "stateMutability": "view",
      "type": "function"
    },
    {
      "inputs": [
        {
          "internalType": "uint256",
          "name": "_itemId",
          "type": "uint256"
        }
      ],
      "name": "purchaseItem",
      "outputs": [],
      "stateMutability": "payable",
      "type": "function"
    },
    {
      "inputs": [],
      "name": "totalAuctionCompleted",
      "outputs": [
        {
          "internalType": "uint256",
          "name": "",
          "type": "uint256"
        }
      ],
      "stateMutability": "view",
      "type": "function"
    },
    {
      "inputs": [],
      "name": "totalVolume",
      "outputs": [
        {
          "internalType": "uint256",
          "name": "",
          "type": "uint256"
        }
      ],
      "stateMutability": "view",
      "type": "function"
    },
    {
      "inputs": [
        {
          "internalType": "address payable",
          "name": "account",
          "type": "address"
        }
      ],
      "name": "withdraw",
      "outputs": [],
      "stateMutability": "payable",
      "type": "function"
    },
    {
      "stateMutability": "payable",
      "type": "receive"
    }
  ],
  "bytecode": "0x60c06040523480156200001157600080fd5b506040516200453e3803806200453e83398181016040528101906200003791906200009c565b60016000819055503373ffffffffffffffffffffffffffffffffffffffff1660808173ffffffffffffffffffffffffffffffffffffffff1660601b815250508060a0818152505050620000ec565b6000815190506200009681620000d2565b92915050565b600060208284031215620000af57600080fd5b6000620000bf8482850162000085565b91505092915050565b6000819050919050565b620000dd81620000c8565b8114620000e957600080fd5b50565b60805160601c60a05161441b620001236000396000611dfb01526000818161164801528181611c740152612999015261441b6000f3fe6080604052600436106101385760003560e01c80637bce3b1b116100ab578063bbc215c31161006f578063bbc215c314610418578063bfb231d214610455578063c2698a2d14610497578063c750cb79146104b3578063d38ea5bf146104f0578063fa00afc71461050c5761013f565b80637bce3b1b146102f95780637fd6f15c1461033657806383ffda3b146103615780638704f2a31461039e5780638f288644146103db5761013f565b806351cff8d9116100fd57806351cff8d9146102175780635f81a57c1461023357806361beb1d71461025e57806365e17c9d146102875780636bf774a7146102b25780636bfb0d01146102ce5761013f565b80623db6d2146101415780632212c6941461016a57806327fabf77146101a7578063305a67a8146101d2578063454a2ab3146101fb5761013f565b3661013f57005b005b34801561014d57600080fd5b50610168600480360381019061016391906136c0565b610535565b005b34801561017657600080fd5b50610191600480360381019061018c91906136c0565b610822565b60405161019e9190613ab5565b60405180910390f35b3480156101b357600080fd5b506101bc6109dc565b6040516101c99190613cf2565b60405180910390f35b3480156101de57600080fd5b506101f960048036038101906101f491906136c0565b6109e2565b005b610215600480360381019061021091906136c0565b610b77565b005b610231600480360381019061022c91906135a9565b6111a4565b005b34801561023f57600080fd5b50610248611282565b6040516102559190613cf2565b60405180910390f35b34801561026a57600080fd5b506102856004803603810190610280919061365d565b611288565b005b34801561029357600080fd5b5061029c611646565b6040516102a99190613a2c565b60405180910390f35b6102cc60048036038101906102c79190613712565b61166a565b005b3480156102da57600080fd5b506102e3611dce565b6040516102f09190613cf2565b60405180910390f35b34801561030557600080fd5b50610320600480360381019061031b91906135d2565b611dd4565b60405161032d9190613cf2565b60405180910390f35b34801561034257600080fd5b5061034b611df9565b6040516103589190613cf2565b60405180910390f35b34801561036d57600080fd5b5061038860048036038101906103839190613557565b611e1d565b6040516103959190613cf2565b60405180910390f35b3480156103aa57600080fd5b506103c560048036038101906103c091906136c0565b611e66565b6040516103d29190613ab5565b60405180910390f35b3480156103e757600080fd5b5061040260048036038101906103fd91906136c0565b611eab565b60405161040f9190613cf2565b60405180910390f35b34801561042457600080fd5b5061043f600480360381019061043a91906136c0565b611ff0565b60405161044c9190613cf2565b60405180910390f35b34801561046157600080fd5b5061047c600480360381019061047791906136c0565b612135565b60405161048e96959493929190613d0d565b60405180910390f35b6104b160048036038101906104ac9190613712565b6121be565b005b3480156104bf57600080fd5b506104da60048036038101906104d591906136c0565b61259d565b6040516104e79190613a11565b60405180910390f35b61050a600480360381019061050591906136c0565b6126e2565b005b34801561051857600080fd5b50610533600480360381019061052e919061360e565b612c5e565b005b600060056000838152602001908152602001600020604051806101200160405290816000820160009054906101000a900460ff16151515158152602001600182015481526020016002820160009054906101000a900473ffffffffffffffffffffffffffffffffffffffff1673ffffffffffffffffffffffffffffffffffffffff1673ffffffffffffffffffffffffffffffffffffffff168152602001600382015481526020016004820160009054906101000a900473ffffffffffffffffffffffffffffffffffffffff1673ffffffffffffffffffffffffffffffffffffffff1673ffffffffffffffffffffffffffffffffffffffff1681526020016005820154815260200160068201548152602001600782015481526020016008820160009054906101000a900460ff1615151515815250509050600015158161010001511515146106b8576040517f08c379a00000000000000000000000000000000000000000000000000000000081526004016106af90613bd2565b60405180910390fd5b8060c001514211156106d7576001816101000190151590811515815250505b806005600084815260200190815260200160002060008201518160000160006101000a81548160ff0219169083151502179055506020820151816001015560408201518160020160006101000a81548173ffffffffffffffffffffffffffffffffffffffff021916908373ffffffffffffffffffffffffffffffffffffffff1602179055506060820151816003015560808201518160040160006101000a81548173ffffffffffffffffffffffffffffffffffffffff021916908373ffffffffffffffffffffffffffffffffffffffff16021790555060a0820151816005015560c0820151816006015560e082015181600701556101008201518160080160006101000a81548160ff02191690831515021790555090505060006005600084815260200190815260200160002060000160006101000a81548160ff0219169083151502179055505050565b60008060056000848152602001908152602001600020604051806101200160405290816000820160009054906101000a900460ff16151515158152602001600182015481526020016002820160009054906101000a900473ffffffffffffffffffffffffffffffffffffffff1673ffffffffffffffffffffffffffffffffffffffff1673ffffffffffffffffffffffffffffffffffffffff168152602001600382015481526020016004820160009054906101000a900473ffffffffffffffffffffffffffffffffffffffff1673ffffffffffffffffffffffffffffffffffffffff1673ffffffffffffffffffffffffffffffffffffffff1681526020016005820154815260200160068201548152602001600782015481526020016008820160009054906101000a900460ff1615151515815250509050600073ffffffffffffffffffffffffffffffffffffffff16816040015173ffffffffffffffffffffffffffffffffffffffff1614156109ce576040517f08c379a00000000000000000000000000000000000000000000000000000000081526004016109c590613c72565b60405180910390fd5b806101000151915050919050565b60045481565b6109ea612eea565b60006002600083815260200190815260200160002090503373ffffffffffffffffffffffffffffffffffffffff168160040160009054906101000a900473ffffffffffffffffffffffffffffffffffffffff1673ffffffffffffffffffffffffffffffffffffffff1614610a93576040517f08c379a0000000000000000000000000000000000000000000000000000000008152600401610a8a90613c92565b60405180910390fd5b8060010160009054906101000a900473ffffffffffffffffffffffffffffffffffffffff1673ffffffffffffffffffffffffffffffffffffffff166323b872dd308360040160009054906101000a900473ffffffffffffffffffffffffffffffffffffffff1684600201546040518463ffffffff1660e01b8152600401610b1c93929190613a47565b600060405180830381600087803b158015610b3657600080fd5b505af1158015610b4a573d6000803e3d6000fd5b5050505060018160040160146101000a81548160ff02191690831515021790555050610b74612f3a565b50565b600060056000838152602001908152602001600020604051806101200160405290816000820160009054906101000a900460ff16151515158152602001600182015481526020016002820160009054906101000a900473ffffffffffffffffffffffffffffffffffffffff1673ffffffffffffffffffffffffffffffffffffffff1673ffffffffffffffffffffffffffffffffffffffff168152602001600382015481526020016004820160009054906101000a900473ffffffffffffffffffffffffffffffffffffffff1673ffffffffffffffffffffffffffffffffffffffff1673ffffffffffffffffffffffffffffffffffffffff1681526020016005820154815260200160068201548152602001600782015481526020016008820160009054906101000a900460ff161515151581525050905060001515816101000151151514610cfa576040517f08c379a0000000000000000000000000000000000000000000000000000000008152600401610cf190613bb2565b60405180910390fd5b600073ffffffffffffffffffffffffffffffffffffffff16816040015173ffffffffffffffffffffffffffffffffffffffff161415610d6e576040517f08c379a0000000000000000000000000000000000000000000000000000000008152600401610d6590613c52565b60405180910390fd5b8060c001514210156111a0576000600660003373ffffffffffffffffffffffffffffffffffffffff1673ffffffffffffffffffffffffffffffffffffffff16815260200190815260200160002060008481526020019081526020016000205490508034610ddb9190613dc1565b8260a00151108015610dfc57508034610df49190613dc1565b826060015111155b610e3b576040517f08c379a0000000000000000000000000000000000000000000000000000000008152600401610e3290613b32565b60405180910390fd5b816040015173ffffffffffffffffffffffffffffffffffffffff163373ffffffffffffffffffffffffffffffffffffffff161415610eae576040517f08c379a0000000000000000000000000000000000000000000000000000000008152600401610ea590613c32565b60405180910390fd5b3481610eba9190613dc1565b600660003373ffffffffffffffffffffffffffffffffffffffff1673ffffffffffffffffffffffffffffffffffffffff168152602001908152602001600020600085815260200190815260200160002081905550600660003373ffffffffffffffffffffffffffffffffffffffff1673ffffffffffffffffffffffffffffffffffffffff1681526020019081526020016000206000848152602001908152602001600020549050808260a001818152505033826080019073ffffffffffffffffffffffffffffffffffffffff16908173ffffffffffffffffffffffffffffffffffffffff16815250506007600084815260200190815260200160002060405180606001604052803373ffffffffffffffffffffffffffffffffffffffff16815260200183815260200142815250908060018154018082558091505060019003906000526020600020906003020160009091909190915060008201518160000160006101000a81548173ffffffffffffffffffffffffffffffffffffffff021916908373ffffffffffffffffffffffffffffffffffffffff16021790555060208201518160010155604082015181600201555050816005600085815260200190815260200160002060008201518160000160006101000a81548160ff0219169083151502179055506020820151816001015560408201518160020160006101000a81548173ffffffffffffffffffffffffffffffffffffffff021916908373ffffffffffffffffffffffffffffffffffffffff1602179055506060820151816003015560808201518160040160006101000a81548173ffffffffffffffffffffffffffffffffffffffff021916908373ffffffffffffffffffffffffffffffffffffffff16021790555060a0820151816005015560c0820151816006015560e082015181600701556101008201518160080160006101000a81548160ff02191690831515021790555090505034600360008282546111979190613dc1565b92505081905550505b5050565b60006111af82611e1d565b9050600081116111f4576040517f08c379a00000000000000000000000000000000000000000000000000000000081526004016111eb90613b92565b60405180910390fd5b8173ffffffffffffffffffffffffffffffffffffffff166108fc829081150290604051600060405180830381858888f1935050505015801561123a573d6000803e3d6000fd5b50600860008373ffffffffffffffffffffffffffffffffffffffff1673ffffffffffffffffffffffffffffffffffffffff168152602001908152602001600020600090555050565b60035481565b600082116112cb576040517f08c379a00000000000000000000000000000000000000000000000000000000081526004016112c290613b12565b60405180910390fd5b600160008154809291906112de90613fcf565b91905055508373ffffffffffffffffffffffffffffffffffffffff166323b872dd3330866040518463ffffffff1660e01b815260040161132093929190613a7e565b600060405180830381600087803b15801561133a57600080fd5b505af115801561134e573d6000803e3d6000fd5b5050505060018161135f9190613e48565b9050804261136d9190613dc1565b905060405180610120016040528060011515815260200160015481526020013373ffffffffffffffffffffffffffffffffffffffff168152602001838152602001600073ffffffffffffffffffffffffffffffffffffffff168152602001600081526020018281526020014281526020016000151581525060056000600154815260200190815260200160002060008201518160000160006101000a81548160ff0219169083151502179055506020820151816001015560408201518160020160006101000a81548173ffffffffffffffffffffffffffffffffffffffff021916908373ffffffffffffffffffffffffffffffffffffffff1602179055506060820151816003015560808201518160040160006101000a81548173ffffffffffffffffffffffffffffffffffffffff021916908373ffffffffffffffffffffffffffffffffffffffff16021790555060a0820151816005015560c0820151816006015560e082015181600701556101008201518160080160006101000a81548160ff0219169083151502179055509050506040518060c0016040528060015481526020018573ffffffffffffffffffffffffffffffffffffffff1681526020018481526020018381526020013373ffffffffffffffffffffffffffffffffffffffff168152602001600015158152506002600060015481526020019081526020016000206000820151816000015560208201518160010160006101000a81548173ffffffffffffffffffffffffffffffffffffffff021916908373ffffffffffffffffffffffffffffffffffffffff160217905550604082015181600201556060820151816003015560808201518160040160006101000a81548173ffffffffffffffffffffffffffffffffffffffff021916908373ffffffffffffffffffffffffffffffffffffffff16021790555060a08201518160040160146101000a81548160ff02191690831515021790555090505050505050565b7f000000000000000000000000000000000000000000000000000000000000000081565b600060056000848152602001908152602001600020604051806101200160405290816000820160009054906101000a900460ff16151515158152602001600182015481526020016002820160009054906101000a900473ffffffffffffffffffffffffffffffffffffffff1673ffffffffffffffffffffffffffffffffffffffff1673ffffffffffffffffffffffffffffffffffffffff168152602001600382015481526020016004820160009054906101000a900473ffffffffffffffffffffffffffffffffffffffff1673ffffffffffffffffffffffffffffffffffffffff1673ffffffffffffffffffffffffffffffffffffffff1681526020016005820154815260200160068201548152602001600782015481526020016008820160009054906101000a900460ff16151515158152505090506005600084815260200190815260200160002060040160009054906101000a900473ffffffffffffffffffffffffffffffffffffffff1673ffffffffffffffffffffffffffffffffffffffff168273ffffffffffffffffffffffffffffffffffffffff1614611845576040517f08c379a000000000000000000000000000000000000000000000000000000000815260040161183c90613cd2565b60405180910390fd5b428160c001511061188b576040517f08c379a000000000000000000000000000000000000000000000000000000000815260040161188290613b52565b60405180910390fd5b600061189684610822565b9050806118a7576118a684610535565b5b60006002600086815260200190815260200160002090508060010160009054906101000a900473ffffffffffffffffffffffffffffffffffffffff1673ffffffffffffffffffffffffffffffffffffffff166323b872dd303384600201546040518463ffffffff1660e01b815260040161192393929190613a7e565b600060405180830381600087803b15801561193d57600080fd5b505af1158015611951573d6000803e3d6000fd5b5050505060018160040160146101000a81548160ff0219169083151502179055503373ffffffffffffffffffffffffffffffffffffffff168160040160009054906101000a900473ffffffffffffffffffffffffffffffffffffffff1673ffffffffffffffffffffffffffffffffffffffff168260010160009054906101000a900473ffffffffffffffffffffffffffffffffffffffff1673ffffffffffffffffffffffffffffffffffffffff167f8b4c9c8a607d67b321582dd8461041b1dc2ceeca70c8b7f37f8e02095cf2e76d8885600201548660030154604051611a3a93929190613d6e565b60405180910390a4611a806040518060400160405280601481526020017f7468697320697320746f74616c20707269636520000000000000000000000000815250612f44565b60008160010160009054906101000a900473ffffffffffffffffffffffffffffffffffffffff1673ffffffffffffffffffffffffffffffffffffffff166340a58a3283600201546040518263ffffffff1660e01b8152600401611ae39190613cf2565b60206040518083038186803b158015611afb57600080fd5b505afa158015611b0f573d6000803e3d6000fd5b505050506040513d601f19601f82011682018060405250810190611b339190613580565b905060008260010160009054906101000a900473ffffffffffffffffffffffffffffffffffffffff1673ffffffffffffffffffffffffffffffffffffffff1663c7ea4f1784600201546040518263ffffffff1660e01b8152600401611b989190613cf2565b60206040518083038186803b158015611bb057600080fd5b505afa158015611bc4573d6000803e3d6000fd5b505050506040513d601f19601f82011682018060405250810190611be891906136e9565b905060066000866080015173ffffffffffffffffffffffffffffffffffffffff1673ffffffffffffffffffffffffffffffffffffffff168152602001908152602001600020600088815260200190815260200160002060009055600060018660a00151611c559190613e48565b90506000611c638284612fdd565b90506000611c7083613000565b90507f000000000000000000000000000000000000000000000000000000000000000073ffffffffffffffffffffffffffffffffffffffff166108fc829081150290604051600060405180830381858888f19350505050158015611cd8573d6000803e3d6000fd5b508473ffffffffffffffffffffffffffffffffffffffff166108fc839081150290604051600060405180830381858888f19350505050158015611d1f573d6000803e3d6000fd5b508560040160009054906101000a900473ffffffffffffffffffffffffffffffffffffffff1673ffffffffffffffffffffffffffffffffffffffff166108fc8383611d6a9190613dc1565b85611d759190613ea2565b9081150290604051600060405180830381858888f19350505050158015611da0573d6000803e3d6000fd5b50611daa8a613023565b60046000815480929190611dbd90613fcf565b919050555050505050505050505050565b60015481565b6006602052816000526040600020602052806000526040600020600091509150505481565b7f000000000000000000000000000000000000000000000000000000000000000081565b6000600860008373ffffffffffffffffffffffffffffffffffffffff1673ffffffffffffffffffffffffffffffffffffffff168152602001908152602001600020549050919050565b6000600115156005600084815260200190815260200160002060000160009054906101000a900460ff1615151415611ea15760019050611ea6565b600090505b919050565b60008060056000848152602001908152602001600020604051806101200160405290816000820160009054906101000a900460ff16151515158152602001600182015481526020016002820160009054906101000a900473ffffffffffffffffffffffffffffffffffffffff1673ffffffffffffffffffffffffffffffffffffffff1673ffffffffffffffffffffffffffffffffffffffff168152602001600382015481526020016004820160009054906101000a900473ffffffffffffffffffffffffffffffffffffffff1673ffffffffffffffffffffffffffffffffffffffff1673ffffffffffffffffffffffffffffffffffffffff1681526020016005820154815260200160068201548152602001600782015481526020016008820160009054906101000a900460ff16151515158152505090508060a00151915050919050565b60008060056000848152602001908152602001600020604051806101200160405290816000820160009054906101000a900460ff16151515158152602001600182015481526020016002820160009054906101000a900473ffffffffffffffffffffffffffffffffffffffff1673ffffffffffffffffffffffffffffffffffffffff1673ffffffffffffffffffffffffffffffffffffffff168152602001600382015481526020016004820160009054906101000a900473ffffffffffffffffffffffffffffffffffffffff1673ffffffffffffffffffffffffffffffffffffffff1673ffffffffffffffffffffffffffffffffffffffff1681526020016005820154815260200160068201548152602001600782015481526020016008820160009054906101000a900460ff16151515158152505090508060c00151915050919050565b60026020528060005260406000206000915090508060000154908060010160009054906101000a900473ffffffffffffffffffffffffffffffffffffffff16908060020154908060030154908060040160009054906101000a900473ffffffffffffffffffffffffffffffffffffffff16908060040160149054906101000a900460ff16905086565b600060056000848152602001908152602001600020604051806101200160405290816000820160009054906101000a900460ff16151515158152602001600182015481526020016002820160009054906101000a900473ffffffffffffffffffffffffffffffffffffffff1673ffffffffffffffffffffffffffffffffffffffff1673ffffffffffffffffffffffffffffffffffffffff168152602001600382015481526020016004820160009054906101000a900473ffffffffffffffffffffffffffffffffffffffff1673ffffffffffffffffffffffffffffffffffffffff1673ffffffffffffffffffffffffffffffffffffffff1681526020016005820154815260200160068201548152602001600782015481526020016008820160009054906101000a900460ff16151515158152505090506005600084815260200190815260200160002060020160009054906101000a900473ffffffffffffffffffffffffffffffffffffffff1673ffffffffffffffffffffffffffffffffffffffff168273ffffffffffffffffffffffffffffffffffffffff1614612399576040517f08c379a000000000000000000000000000000000000000000000000000000000815260040161239090613b72565b60405180910390fd5b428160c00151106123df576040517f08c379a00000000000000000000000000000000000000000000000000000000081526004016123d690613b52565b60405180910390fd5b60006123ea84610822565b9050806123fb576123fa84610535565b5b60006002600086815260200190815260200160002090508060010160009054906101000a900473ffffffffffffffffffffffffffffffffffffffff1673ffffffffffffffffffffffffffffffffffffffff166323b872dd303384600201546040518463ffffffff1660e01b815260040161247793929190613a7e565b600060405180830381600087803b15801561249157600080fd5b505af11580156124a5573d6000803e3d6000fd5b5050505060018160040160146101000a81548160ff0219169083151502179055503373ffffffffffffffffffffffffffffffffffffffff168160040160009054906101000a900473ffffffffffffffffffffffffffffffffffffffff1673ffffffffffffffffffffffffffffffffffffffff168260010160009054906101000a900473ffffffffffffffffffffffffffffffffffffffff1673ffffffffffffffffffffffffffffffffffffffff167f8b4c9c8a607d67b321582dd8461041b1dc2ceeca70c8b7f37f8e02095cf2e76d888560020154866003015460405161258e93929190613d6e565b60405180910390a45050505050565b60008060056000848152602001908152602001600020604051806101200160405290816000820160009054906101000a900460ff16151515158152602001600182015481526020016002820160009054906101000a900473ffffffffffffffffffffffffffffffffffffffff1673ffffffffffffffffffffffffffffffffffffffff1673ffffffffffffffffffffffffffffffffffffffff168152602001600382015481526020016004820160009054906101000a900473ffffffffffffffffffffffffffffffffffffffff1673ffffffffffffffffffffffffffffffffffffffff1673ffffffffffffffffffffffffffffffffffffffff1681526020016005820154815260200160068201548152602001600782015481526020016008820160009054906101000a900460ff16151515158152505090508060800151915050919050565b6126ea612eea565b600015156005600083815260200190815260200160002060000160009054906101000a900460ff16151514612754576040517f08c379a000000000000000000000000000000000000000000000000000000000815260040161274b90613bf2565b60405180910390fd5b600061275f82613477565b9050600060026000848152602001908152602001600020905060008311801561278a57506001548311155b6127c9576040517f08c379a00000000000000000000000000000000000000000000000000000000081526004016127c090613c12565b60405180910390fd5b8060040160149054906101000a900460ff161561281b576040517f08c379a000000000000000000000000000000000000000000000000000000000815260040161281290613af2565b60405180910390fd5b60008160010160009054906101000a900473ffffffffffffffffffffffffffffffffffffffff1673ffffffffffffffffffffffffffffffffffffffff166340a58a3283600201546040518263ffffffff1660e01b815260040161287e9190613cf2565b60206040518083038186803b15801561289657600080fd5b505afa1580156128aa573d6000803e3d6000fd5b505050506040513d601f19601f820116820180604052508101906128ce9190613580565b905060008260010160009054906101000a900473ffffffffffffffffffffffffffffffffffffffff1673ffffffffffffffffffffffffffffffffffffffff1663c7ea4f1784600201546040518263ffffffff1660e01b81526004016129339190613cf2565b60206040518083038186803b15801561294b57600080fd5b505afa15801561295f573d6000803e3d6000fd5b505050506040513d601f19601f8201168201806040525081019061298391906136e9565b90506000612995846003015483612fdd565b90507f000000000000000000000000000000000000000000000000000000000000000073ffffffffffffffffffffffffffffffffffffffff166108fc869081150290604051600060405180830381858888f193505050501580156129fd573d6000803e3d6000fd5b508273ffffffffffffffffffffffffffffffffffffffff166108fc829081150290604051600060405180830381858888f19350505050158015612a44573d6000803e3d6000fd5b508360040160009054906101000a900473ffffffffffffffffffffffffffffffffffffffff1673ffffffffffffffffffffffffffffffffffffffff166108fc8287612a8f9190613dc1565b8660030154612a9e9190613ea2565b9081150290604051600060405180830381858888f19350505050158015612ac9573d6000803e3d6000fd5b5060018460040160146101000a81548160ff0219169083151502179055508360010160009054906101000a900473ffffffffffffffffffffffffffffffffffffffff1673ffffffffffffffffffffffffffffffffffffffff166323b872dd303387600201546040518463ffffffff1660e01b8152600401612b4c93929190613a7e565b600060405180830381600087803b158015612b6657600080fd5b505af1158015612b7a573d6000803e3d6000fd5b505050503373ffffffffffffffffffffffffffffffffffffffff168460040160009054906101000a900473ffffffffffffffffffffffffffffffffffffffff1673ffffffffffffffffffffffffffffffffffffffff168560010160009054906101000a900473ffffffffffffffffffffffffffffffffffffffff1673ffffffffffffffffffffffffffffffffffffffff167f8b4c9c8a607d67b321582dd8461041b1dc2ceeca70c8b7f37f8e02095cf2e76d8988600201548960030154604051612c4693929190613d6e565b60405180910390a45050505050612c5b612f3a565b50565b612c66612eea565b60008111612ca9576040517f08c379a0000000000000000000000000000000000000000000000000000000008152600401612ca090613b12565b60405180910390fd5b60016000815480929190612cbc90613fcf565b91905055508273ffffffffffffffffffffffffffffffffffffffff166323b872dd3330856040518463ffffffff1660e01b8152600401612cfe93929190613a7e565b600060405180830381600087803b158015612d1857600080fd5b505af1158015612d2c573d6000803e3d6000fd5b505050506040518060c0016040528060015481526020018473ffffffffffffffffffffffffffffffffffffffff1681526020018381526020018281526020013373ffffffffffffffffffffffffffffffffffffffff168152602001600015158152506002600060015481526020019081526020016000206000820151816000015560208201518160010160006101000a81548173ffffffffffffffffffffffffffffffffffffffff021916908373ffffffffffffffffffffffffffffffffffffffff160217905550604082015181600201556060820151816003015560808201518160040160006101000a81548173ffffffffffffffffffffffffffffffffffffffff021916908373ffffffffffffffffffffffffffffffffffffffff16021790555060a08201518160040160146101000a81548160ff0219169083151502179055509050503373ffffffffffffffffffffffffffffffffffffffff168373ffffffffffffffffffffffffffffffffffffffff167f655a0cf9c8db81512be9a76dc1c5ae5380b8816ce6ad659cd61b715e2999d59a6001548585604051612ed593929190613d6e565b60405180910390a3612ee5612f3a565b505050565b60026000541415612f30576040517f08c379a0000000000000000000000000000000000000000000000000000000008152600401612f2790613cb2565b60405180910390fd5b6002600081905550565b6001600081905550565b612fda81604051602401612f589190613ad0565b6040516020818303038152906040527f41304fac000000000000000000000000000000000000000000000000000000007bffffffffffffffffffffffffffffffffffffffffffffffffffffffff19166020820180517bffffffffffffffffffffffffffffffffffffffffffffffffffffffff83818316178352505050506134b0565b50565b60008161271084612fee9190613e17565b612ff89190613e48565b905092915050565b600060fa612710836130129190613e17565b61301c9190613e48565b9050919050565b600060076000838152602001908152602001600020805480602002602001604051908101604052809291908181526020016000905b828210156130f457838290600052602060002090600302016040518060600160405290816000820160009054906101000a900473ffffffffffffffffffffffffffffffffffffffff1673ffffffffffffffffffffffffffffffffffffffff1673ffffffffffffffffffffffffffffffffffffffff1681526020016001820154815260200160028201548152505081526020019060010190613058565b505050509050600060056000848152602001908152602001600020604051806101200160405290816000820160009054906101000a900460ff16151515158152602001600182015481526020016002820160009054906101000a900473ffffffffffffffffffffffffffffffffffffffff1673ffffffffffffffffffffffffffffffffffffffff1673ffffffffffffffffffffffffffffffffffffffff168152602001600382015481526020016004820160009054906101000a900473ffffffffffffffffffffffffffffffffffffffff1673ffffffffffffffffffffffffffffffffffffffff1673ffffffffffffffffffffffffffffffffffffffff1681526020016005820154815260200160068201548152602001600782015481526020016008820160009054906101000a900460ff161515151581525050905060005b600183516132429190613ea2565b8111613471578160a00151838281518110613286577f4e487b7100000000000000000000000000000000000000000000000000000000600052603260045260246000fd5b6020026020010151602001511461345e57600660008483815181106132d4577f4e487b7100000000000000000000000000000000000000000000000000000000600052603260045260246000fd5b60200260200101516000015173ffffffffffffffffffffffffffffffffffffffff1673ffffffffffffffffffffffffffffffffffffffff16815260200190815260200160002060008581526020019081526020016000205460086000858481518110613369577f4e487b7100000000000000000000000000000000000000000000000000000000600052603260045260246000fd5b60200260200101516000015173ffffffffffffffffffffffffffffffffffffffff1673ffffffffffffffffffffffffffffffffffffffff16815260200190815260200160002060008282546133be9190613dc1565b9250508190555060066000848381518110613402577f4e487b7100000000000000000000000000000000000000000000000000000000600052603260045260246000fd5b60200260200101516000015173ffffffffffffffffffffffffffffffffffffffff1673ffffffffffffffffffffffffffffffffffffffff1681526020019081526020016000206000858152602001908152602001600020600090555b808061346990613fcf565b915050613234565b50505050565b600060fa612710600260008581526020019081526020016000206003015461349f9190613e17565b6134a99190613e48565b9050919050565b60008151905060006a636f6e736f6c652e6c6f679050602083016000808483855afa5050505050565b6000813590506134e881614389565b92915050565b6000815190506134fd81614389565b92915050565b600081359050613512816143a0565b92915050565b600081359050613527816143b7565b92915050565b60008135905061353c816143ce565b92915050565b600081519050613551816143ce565b92915050565b60006020828403121561356957600080fd5b6000613577848285016134d9565b91505092915050565b60006020828403121561359257600080fd5b60006135a0848285016134ee565b91505092915050565b6000602082840312156135bb57600080fd5b60006135c984828501613503565b91505092915050565b600080604083850312156135e557600080fd5b60006135f3858286016134d9565b92505060206136048582860161352d565b9150509250929050565b60008060006060848603121561362357600080fd5b600061363186828701613518565b93505060206136428682870161352d565b92505060406136538682870161352d565b9150509250925092565b6000806000806080858703121561367357600080fd5b600061368187828801613518565b94505060206136928782880161352d565b93505060406136a38782880161352d565b92505060606136b48782880161352d565b91505092959194509250565b6000602082840312156136d257600080fd5b60006136e08482850161352d565b91505092915050565b6000602082840312156136fb57600080fd5b600061370984828501613542565b91505092915050565b6000806040838503121561372557600080fd5b60006137338582860161352d565b9250506020613744858286016134d9565b9150509250929050565b61375781613f42565b82525050565b61376681613ee8565b82525050565b61377581613ed6565b82525050565b61378481613efa565b82525050565b61379381613f54565b82525050565b60006137a482613da5565b6137ae8185613db0565b93506137be818560208601613f9c565b6137c781614076565b840191505092915050565b60006137df601183613db0565b91506137ea82614087565b602082019050919050565b6000613802601f83613db0565b915061380d826140b0565b602082019050919050565b6000613825601683613db0565b9150613830826140d9565b602082019050919050565b6000613848601683613db0565b915061385382614102565b602082019050919050565b600061386b601d83613db0565b91506138768261412b565b602082019050919050565b600061388e601983613db0565b915061389982614154565b602082019050919050565b60006138b1601183613db0565b91506138bc8261417d565b602082019050919050565b60006138d4601683613db0565b91506138df826141a6565b602082019050919050565b60006138f7600f83613db0565b9150613902826141cf565b602082019050919050565b600061391a601283613db0565b9150613925826141f8565b602082019050919050565b600061393d602283613db0565b915061394882614221565b604082019050919050565b6000613960601683613db0565b915061396b82614270565b602082019050919050565b6000613983602783613db0565b915061398e82614299565b604082019050919050565b60006139a6601f83613db0565b91506139b1826142e8565b602082019050919050565b60006139c9601f83613db0565b91506139d482614311565b602082019050919050565b60006139ec602e83613db0565b91506139f78261433a565b604082019050919050565b613a0b81613f38565b82525050565b6000602082019050613a26600083018461376c565b92915050565b6000602082019050613a41600083018461375d565b92915050565b6000606082019050613a5c600083018661376c565b613a69602083018561374e565b613a766040830184613a02565b949350505050565b6000606082019050613a93600083018661376c565b613aa0602083018561376c565b613aad6040830184613a02565b949350505050565b6000602082019050613aca600083018461377b565b92915050565b60006020820190508181036000830152613aea8184613799565b905092915050565b60006020820190508181036000830152613b0b816137d2565b9050919050565b60006020820190508181036000830152613b2b816137f5565b9050919050565b60006020820190508181036000830152613b4b81613818565b9050919050565b60006020820190508181036000830152613b6b8161383b565b9050919050565b60006020820190508181036000830152613b8b8161385e565b9050919050565b60006020820190508181036000830152613bab81613881565b9050919050565b60006020820190508181036000830152613bcb816138a4565b9050919050565b60006020820190508181036000830152613beb816138c7565b9050919050565b60006020820190508181036000830152613c0b816138ea565b9050919050565b60006020820190508181036000830152613c2b8161390d565b9050919050565b60006020820190508181036000830152613c4b81613930565b9050919050565b60006020820190508181036000830152613c6b81613953565b9050919050565b60006020820190508181036000830152613c8b81613976565b9050919050565b60006020820190508181036000830152613cab81613999565b9050919050565b60006020820190508181036000830152613ccb816139bc565b9050919050565b60006020820190508181036000830152613ceb816139df565b9050919050565b6000602082019050613d076000830184613a02565b92915050565b600060c082019050613d226000830189613a02565b613d2f602083018861378a565b613d3c6040830187613a02565b613d496060830186613a02565b613d56608083018561375d565b613d6360a083018461377b565b979650505050505050565b6000606082019050613d836000830186613a02565b613d906020830185613a02565b613d9d6040830184613a02565b949350505050565b600081519050919050565b600082825260208201905092915050565b6000613dcc82613f38565b9150613dd783613f38565b9250827fffffffffffffffffffffffffffffffffffffffffffffffffffffffffffffffff03821115613e0c57613e0b614018565b5b828201905092915050565b6000613e2282613f38565b9150613e2d83613f38565b925082613e3d57613e3c614047565b5b828204905092915050565b6000613e5382613f38565b9150613e5e83613f38565b9250817fffffffffffffffffffffffffffffffffffffffffffffffffffffffffffffffff0483118215151615613e9757613e96614018565b5b828202905092915050565b6000613ead82613f38565b9150613eb883613f38565b925082821015613ecb57613eca614018565b5b828203905092915050565b6000613ee182613f18565b9050919050565b6000613ef382613f18565b9050919050565b60008115159050919050565b6000613f1182613ed6565b9050919050565b600073ffffffffffffffffffffffffffffffffffffffff82169050919050565b6000819050919050565b6000613f4d82613f78565b9050919050565b6000613f5f82613f66565b9050919050565b6000613f7182613f18565b9050919050565b6000613f8382613f8a565b9050919050565b6000613f9582613f18565b9050919050565b60005b83811015613fba578082015181840152602081019050613f9f565b83811115613fc9576000848401525b50505050565b6000613fda82613f38565b91507fffffffffffffffffffffffffffffffffffffffffffffffffffffffffffffffff82141561400d5761400c614018565b5b600182019050919050565b7f4e487b7100000000000000000000000000000000000000000000000000000000600052601160045260246000fd5b7f4e487b7100000000000000000000000000000000000000000000000000000000600052601260045260246000fd5b6000601f19601f8301169050919050565b7f6974656d20616c726561647920736f6c64000000000000000000000000000000600082015250565b7f5072696365206d7573742062652067726561746572207468616e207a65726f00600082015250565b7f506c656173652073656e64206d6f72652066756e647300000000000000000000600082015250565b7f41756374696f6e2054696d652072656d61696e696e6700000000000000000000600082015250565b7f596f7520617265206e6f74204f776e6572206f662074686973204e4654000000600082015250565b7f796f7520646f6e7420686176652072657475726e206269647300000000000000600082015250565b7f41756374696f6e2068617320656e646564000000000000000000000000000000600082015250565b7f546869732061756374696f6e2068617320456e64656400000000000000000000600082015250565b7f41756374696f6e204e6f7420456e640000000000000000000000000000000000600082015250565b7f6974656d20646f65736e27742065786973740000000000000000000000000000600082015250565b7f596f752063616e6e6f742062696420696e20796f7572206f776e20617563746960008201527f6f6e000000000000000000000000000000000000000000000000000000000000602082015250565b7f41756374696f6e20646f6573206e6f7420657869737400000000000000000000600082015250565b7f41756374696f6e20666f722074686973204e4654206973206e6f7420696e207060008201527f726f677265737300000000000000000000000000000000000000000000000000602082015250565b7f796f75206172654e6f7420616c6c6f7720746f2063616e63656c206c69737400600082015250565b7f5265656e7472616e637947756172643a207265656e7472616e742063616c6c00600082015250565b7f596f7520617265206e6f7420617574686f72697a656420746f20636f6e636c7560008201527f6465207468652061756374696f6e000000000000000000000000000000000000602082015250565b61439281613ed6565b811461439d57600080fd5b50565b6143a981613ee8565b81146143b457600080fd5b50565b6143c081613f06565b81146143cb57600080fd5b50565b6143d781613f38565b81146143e257600080fd5b5056fea26469706673582212201ecf6511c19df1ca1a20a34e12914ef0c3c13bb1cede33bab9ebeb4d8d3ee61264736f6c63430008040033",
  "linkReferences": {},
  "deployedLinkReferences": {}
}