{
  "_format": "hh-sol-artifact-1",
  "contractName": "NFT",
  "sourceName": "src/backend/contracts/NFT.sol",
  "abi": [
    {
      "inputs": [],
      "stateMutability": "nonpayable",
      "type": "constructor"
    },
    {
      "inputs": [],
      "name": "BasicNft__RoyalityFeesPercentageLimitExceed",
      "type": "error"
    },
    {
      "anonymous": false,
      "inputs": [
        {
          "indexed": true,
          "internalType": "address",
          "name": "owner",
          "type": "address"
        },
        {
          "indexed": true,
          "internalType": "address",
          "name": "approved",
          "type": "address"
        },
        {
          "indexed": true,
          "internalType": "uint256",
          "name": "tokenId",
          "type": "uint256"
        }
      ],
      "name": "Approval",
      "type": "event"
    },
    {
      "anonymous": false,
      "inputs": [
        {
          "indexed": true,
          "internalType": "address",
          "name": "owner",
          "type": "address"
        },
        {
          "indexed": true,
          "internalType": "address",
          "name": "operator",
          "type": "address"
        },
        {
          "indexed": false,
          "internalType": "bool",
          "name": "approved",
          "type": "bool"
        }
      ],
      "name": "ApprovalForAll",
      "type": "event"
    },
    {
      "anonymous": false,
      "inputs": [
        {
          "indexed": true,
          "internalType": "address",
          "name": "from",
          "type": "address"
        },
        {
          "indexed": true,
          "internalType": "address",
          "name": "to",
          "type": "address"
        },
        {
          "indexed": true,
          "internalType": "uint256",
          "name": "tokenId",
          "type": "uint256"
        }
      ],
      "name": "Transfer",
      "type": "event"
    },
    {
      "inputs": [
        {
          "internalType": "address",
          "name": "to",
          "type": "address"
        },
        {
          "internalType": "uint256",
          "name": "tokenId",
          "type": "uint256"
        }
      ],
      "name": "approve",
      "outputs": [],
      "stateMutability": "nonpayable",
      "type": "function"
    },
    {
      "inputs": [
        {
          "internalType": "address",
          "name": "owner",
          "type": "address"
        }
      ],
      "name": "balanceOf",
      "outputs": [
        {
          "internalType": "uint256",
          "name": "",
          "type": "uint256"
        }
      ],
      "stateMutability": "view",
      "type": "function"
    },
    {
      "inputs": [
        {
          "internalType": "uint256",
          "name": "tokenId",
          "type": "uint256"
        }
      ],
      "name": "getApproved",
      "outputs": [
        {
          "internalType": "address",
          "name": "",
          "type": "address"
        }
      ],
      "stateMutability": "view",
      "type": "function"
    },
    {
      "inputs": [
        {
          "internalType": "uint256",
          "name": "tokenId",
          "type": "uint256"
        }
      ],
      "name": "getFirstOwner",
      "outputs": [
        {
          "internalType": "address",
          "name": "",
          "type": "address"
        }
      ],
      "stateMutability": "view",
      "type": "function"
    },
    {
      "inputs": [
        {
          "internalType": "uint256",
          "name": "tokenId",
          "type": "uint256"
        }
      ],
      "name": "getRoyalityFees",
      "outputs": [
        {
          "internalType": "uint256",
          "name": "",
          "type": "uint256"
        }
      ],
      "stateMutability": "view",
      "type": "function"
    },
    {
      "inputs": [
        {
          "internalType": "address",
          "name": "owner",
          "type": "address"
        },
        {
          "internalType": "address",
          "name": "operator",
          "type": "address"
        }
      ],
      "name": "isApprovedForAll",
      "outputs": [
        {
          "internalType": "bool",
          "name": "",
          "type": "bool"
        }
      ],
      "stateMutability": "view",
      "type": "function"
    },
    {
      "inputs": [
        {
          "internalType": "string",
          "name": "_tokenURI",
          "type": "string"
        },
        {
          "internalType": "uint256",
          "name": "_noOfBips",
          "type": "uint256"
        }
      ],
      "name": "mint",
      "outputs": [
        {
          "internalType": "uint256",
          "name": "",
          "type": "uint256"
        }
      ],
      "stateMutability": "nonpayable",
      "type": "function"
    },
    {
      "inputs": [],
      "name": "name",
      "outputs": [
        {
          "internalType": "string",
          "name": "",
          "type": "string"
        }
      ],
      "stateMutability": "view",
      "type": "function"
    },
    {
      "inputs": [
        {
          "internalType": "uint256",
          "name": "tokenId",
          "type": "uint256"
        }
      ],
      "name": "ownerOf",
      "outputs": [
        {
          "internalType": "address",
          "name": "",
          "type": "address"
        }
      ],
      "stateMutability": "view",
      "type": "function"
    },
    {
      "inputs": [
        {
          "internalType": "address",
          "name": "from",
          "type": "address"
        },
        {
          "internalType": "address",
          "name": "to",
          "type": "address"
        },
        {
          "internalType": "uint256",
          "name": "tokenId",
          "type": "uint256"
        }
      ],
      "name": "safeTransferFrom",
      "outputs": [],
      "stateMutability": "nonpayable",
      "type": "function"
    },
    {
      "inputs": [
        {
          "internalType": "address",
          "name": "from",
          "type": "address"
        },
        {
          "internalType": "address",
          "name": "to",
          "type": "address"
        },
        {
          "internalType": "uint256",
          "name": "tokenId",
          "type": "uint256"
        },
        {
          "internalType": "bytes",
          "name": "data",
          "type": "bytes"
        }
      ],
      "name": "safeTransferFrom",
      "outputs": [],
      "stateMutability": "nonpayable",
      "type": "function"
    },
    {
      "inputs": [
        {
          "internalType": "address",
          "name": "operator",
          "type": "address"
        },
        {
          "internalType": "bool",
          "name": "approved",
          "type": "bool"
        }
      ],
      "name": "setApprovalForAll",
      "outputs": [],
      "stateMutability": "nonpayable",
      "type": "function"
    },
    {
      "inputs": [
        {
          "internalType": "bytes4",
          "name": "interfaceId",
          "type": "bytes4"
        }
      ],
      "name": "supportsInterface",
      "outputs": [
        {
          "internalType": "bool",
          "name": "",
          "type": "bool"
        }
      ],
      "stateMutability": "view",
      "type": "function"
    },
    {
      "inputs": [],
      "name": "symbol",
      "outputs": [
        {
          "internalType": "string",
          "name": "",
          "type": "string"
        }
      ],
      "stateMutability": "view",
      "type": "function"
    },
    {
      "inputs": [],
      "name": "tokenCount",
      "outputs": [
        {
          "internalType": "uint256",
          "name": "",
          "type": "uint256"
        }
      ],
      "stateMutability": "view",
      "type": "function"
    },
    {
      "inputs": [
        {
          "internalType": "uint256",
          "name": "tokenId",
          "type": "uint256"
        }
      ],
      "name": "tokenURI",
      "outputs": [
        {
          "internalType": "string",
          "name": "",
          "type": "string"
        }
      ],
      "stateMutability": "view",
      "type": "function"
    },
    {
      "inputs": [
        {
          "internalType": "address",
          "name": "from",
          "type": "address"
        },
        {
          "internalType": "address",
          "name": "to",
          "type": "address"
        },
        {
          "internalType": "uint256",
          "name": "tokenId",
          "type": "uint256"
        }
      ],
      "name": "transferFrom",
      "outputs": [],
      "stateMutability": "nonpayable",
      "type": "function"
    }
  ],
  "bytecode": "0x60806040523480156200001157600080fd5b506040518060400160405280600881526020017f44417070204e46540000000000000000000000000000000000000000000000008152506040518060400160405280600481526020017f4441505000000000000000000000000000000000000000000000000000000000815250816000908051906020019062000096929190620000b8565b508060019080519060200190620000af929190620000b8565b505050620001cd565b828054620000c69062000168565b90600052602060002090601f016020900481019282620000ea576000855562000136565b82601f106200010557805160ff191683800117855562000136565b8280016001018555821562000136579182015b828111156200013557825182559160200191906001019062000118565b5b50905062000145919062000149565b5090565b5b80821115620001645760008160009055506001016200014a565b5090565b600060028204905060018216806200018157607f821691505b602082108114156200019857620001976200019e565b5b50919050565b7f4e487b7100000000000000000000000000000000000000000000000000000000600052602260045260246000fd5b612d9d80620001dd6000396000f3fe608060405234801561001057600080fd5b506004361061010b5760003560e01c80636352211e116100a2578063a22cb46511610071578063a22cb465146102de578063b88d4fde146102fa578063c7ea4f1714610316578063c87b56dd14610346578063e985e9c5146103765761010b565b80636352211e1461024257806370a082311461027257806395d89b41146102a25780639f181b5e146102c05761010b565b8063095ea7b3116100de578063095ea7b3146101be57806323b872dd146101da57806340a58a32146101f657806342842e0e146102265761010b565b806301ffc9a714610110578063056b01ce1461014057806306fdde0314610170578063081812fc1461018e575b600080fd5b61012a600480360381019061012591906120f5565b6103a6565b60405161013791906124c3565b60405180910390f35b61015a60048036038101906101559190612147565b610488565b6040516101679190612680565b60405180910390f35b610178610595565b60405161018591906124de565b60405180910390f35b6101a860048036038101906101a3919061219b565b610627565b6040516101b5919061245c565b60405180910390f35b6101d860048036038101906101d391906120b9565b61066d565b005b6101f460048036038101906101ef9190611fb3565b610785565b005b610210600480360381019061020b919061219b565b6107e5565b60405161021d919061245c565b60405180910390f35b610240600480360381019061023b9190611fb3565b610825565b005b61025c6004803603810190610257919061219b565b610845565b604051610269919061245c565b60405180910390f35b61028c60048036038101906102879190611f4e565b6108cc565b6040516102999190612680565b60405180910390f35b6102aa610984565b6040516102b791906124de565b60405180910390f35b6102c8610a16565b6040516102d59190612680565b60405180910390f35b6102f860048036038101906102f3919061207d565b610a1c565b005b610314600480360381019061030f9190612002565b610a32565b005b610330600480360381019061032b919061219b565b610a94565b60405161033d9190612680565b60405180910390f35b610360600480360381019061035b919061219b565b610ab4565b60405161036d91906124de565b60405180910390f35b610390600480360381019061038b9190611f77565b610bc7565b60405161039d91906124c3565b60405180910390f35b60007f80ac58cd000000000000000000000000000000000000000000000000000000007bffffffffffffffffffffffffffffffffffffffffffffffffffffffff1916827bffffffffffffffffffffffffffffffffffffffffffffffffffffffff1916148061047157507f5b5e139f000000000000000000000000000000000000000000000000000000007bffffffffffffffffffffffffffffffffffffffffffffffffffffffff1916827bffffffffffffffffffffffffffffffffffffffffffffffffffffffff1916145b80610481575061048082610c5b565b5b9050919050565b60006103e88211156104c6576040517fd495f56700000000000000000000000000000000000000000000000000000000815260040160405180910390fd5b600860008154809291906104d990612908565b91905055506104ea33600854610cc5565b6104f660085484610ce3565b60405180604001604052808381526020013373ffffffffffffffffffffffffffffffffffffffff168152506007600060085481526020019081526020016000206000820151816000015560208201518160010160006101000a81548173ffffffffffffffffffffffffffffffffffffffff021916908373ffffffffffffffffffffffffffffffffffffffff160217905550905050600854905092915050565b6060600080546105a4906128a5565b80601f01602080910402602001604051908101604052809291908181526020018280546105d0906128a5565b801561061d5780601f106105f25761010080835404028352916020019161061d565b820191906000526020600020905b81548152906001019060200180831161060057829003601f168201915b5050505050905090565b600061063282610d57565b6004600083815260200190815260200160002060009054906101000a900473ffffffffffffffffffffffffffffffffffffffff169050919050565b600061067882610845565b90508073ffffffffffffffffffffffffffffffffffffffff168373ffffffffffffffffffffffffffffffffffffffff1614156106e9576040517f08c379a00000000000000000000000000000000000000000000000000000000081526004016106e090612640565b60405180910390fd5b8073ffffffffffffffffffffffffffffffffffffffff16610708610da2565b73ffffffffffffffffffffffffffffffffffffffff161480610737575061073681610731610da2565b610bc7565b5b610776576040517f08c379a000000000000000000000000000000000000000000000000000000000815260040161076d90612660565b60405180910390fd5b6107808383610daa565b505050565b610796610790610da2565b82610e63565b6107d5576040517f08c379a00000000000000000000000000000000000000000000000000000000081526004016107cc90612500565b60405180910390fd5b6107e0838383610ef8565b505050565b60006007600083815260200190815260200160002060010160009054906101000a900473ffffffffffffffffffffffffffffffffffffffff169050919050565b61084083838360405180602001604052806000815250610a32565b505050565b600080610851836111f2565b9050600073ffffffffffffffffffffffffffffffffffffffff168173ffffffffffffffffffffffffffffffffffffffff1614156108c3576040517f08c379a00000000000000000000000000000000000000000000000000000000081526004016108ba90612620565b60405180910390fd5b80915050919050565b60008073ffffffffffffffffffffffffffffffffffffffff168273ffffffffffffffffffffffffffffffffffffffff16141561093d576040517f08c379a0000000000000000000000000000000000000000000000000000000008152600401610934906125c0565b60405180910390fd5b600360008373ffffffffffffffffffffffffffffffffffffffff1673ffffffffffffffffffffffffffffffffffffffff168152602001908152602001600020549050919050565b606060018054610993906128a5565b80601f01602080910402602001604051908101604052809291908181526020018280546109bf906128a5565b8015610a0c5780601f106109e157610100808354040283529160200191610a0c565b820191906000526020600020905b8154815290600101906020018083116109ef57829003601f168201915b5050505050905090565b60085481565b610a2e610a27610da2565b838361122f565b5050565b610a43610a3d610da2565b83610e63565b610a82576040517f08c379a0000000000000000000000000000000000000000000000000000000008152600401610a7990612500565b60405180910390fd5b610a8e8484848461139c565b50505050565b600060076000838152602001908152602001600020600001549050919050565b6060610abf82610d57565b6000600660008481526020019081526020016000208054610adf906128a5565b80601f0160208091040260200160405190810160405280929190818152602001828054610b0b906128a5565b8015610b585780601f10610b2d57610100808354040283529160200191610b58565b820191906000526020600020905b815481529060010190602001808311610b3b57829003601f168201915b505050505090506000610b696113f8565b9050600081511415610b7f578192505050610bc2565b600082511115610bb4578082604051602001610b9c929190612438565b60405160208183030381529060405292505050610bc2565b610bbd8461140f565b925050505b919050565b6000600560008473ffffffffffffffffffffffffffffffffffffffff1673ffffffffffffffffffffffffffffffffffffffff16815260200190815260200160002060008373ffffffffffffffffffffffffffffffffffffffff1673ffffffffffffffffffffffffffffffffffffffff16815260200190815260200160002060009054906101000a900460ff16905092915050565b60007f01ffc9a7000000000000000000000000000000000000000000000000000000007bffffffffffffffffffffffffffffffffffffffffffffffffffffffff1916827bffffffffffffffffffffffffffffffffffffffffffffffffffffffff1916149050919050565b610cdf828260405180602001604052806000815250611477565b5050565b610cec826114d2565b610d2b576040517f08c379a0000000000000000000000000000000000000000000000000000000008152600401610d22906125e0565b60405180910390fd5b80600660008481526020019081526020016000209080519060200190610d52929190611d72565b505050565b610d60816114d2565b610d9f576040517f08c379a0000000000000000000000000000000000000000000000000000000008152600401610d9690612620565b60405180910390fd5b50565b600033905090565b816004600083815260200190815260200160002060006101000a81548173ffffffffffffffffffffffffffffffffffffffff021916908373ffffffffffffffffffffffffffffffffffffffff160217905550808273ffffffffffffffffffffffffffffffffffffffff16610e1d83610845565b73ffffffffffffffffffffffffffffffffffffffff167f8c5be1e5ebec7d5bd14f71427d1e84f3dd0314c0f7b2291e5b200ac8c7c3b92560405160405180910390a45050565b600080610e6f83610845565b90508073ffffffffffffffffffffffffffffffffffffffff168473ffffffffffffffffffffffffffffffffffffffff161480610eb15750610eb08185610bc7565b5b80610eef57508373ffffffffffffffffffffffffffffffffffffffff16610ed784610627565b73ffffffffffffffffffffffffffffffffffffffff16145b91505092915050565b8273ffffffffffffffffffffffffffffffffffffffff16610f1882610845565b73ffffffffffffffffffffffffffffffffffffffff1614610f6e576040517f08c379a0000000000000000000000000000000000000000000000000000000008152600401610f6590612540565b60405180910390fd5b600073ffffffffffffffffffffffffffffffffffffffff168273ffffffffffffffffffffffffffffffffffffffff161415610fde576040517f08c379a0000000000000000000000000000000000000000000000000000000008152600401610fd590612580565b60405180910390fd5b610feb8383836001611513565b8273ffffffffffffffffffffffffffffffffffffffff1661100b82610845565b73ffffffffffffffffffffffffffffffffffffffff1614611061576040517f08c379a000000000000000000000000000000000000000000000000000000000815260040161105890612540565b60405180910390fd5b6004600082815260200190815260200160002060006101000a81549073ffffffffffffffffffffffffffffffffffffffff02191690556001600360008573ffffffffffffffffffffffffffffffffffffffff1673ffffffffffffffffffffffffffffffffffffffff168152602001908152602001600020600082825403925050819055506001600360008473ffffffffffffffffffffffffffffffffffffffff1673ffffffffffffffffffffffffffffffffffffffff16815260200190815260200160002060008282540192505081905550816002600083815260200190815260200160002060006101000a81548173ffffffffffffffffffffffffffffffffffffffff021916908373ffffffffffffffffffffffffffffffffffffffff160217905550808273ffffffffffffffffffffffffffffffffffffffff168473ffffffffffffffffffffffffffffffffffffffff167fddf252ad1be2c89b69c2b068fc378daa952ba7f163c4a11628f55a4df523b3ef60405160405180910390a46111ed8383836001611639565b505050565b60006002600083815260200190815260200160002060009054906101000a900473ffffffffffffffffffffffffffffffffffffffff169050919050565b8173ffffffffffffffffffffffffffffffffffffffff168373ffffffffffffffffffffffffffffffffffffffff16141561129e576040517f08c379a0000000000000000000000000000000000000000000000000000000008152600401611295906125a0565b60405180910390fd5b80600560008573ffffffffffffffffffffffffffffffffffffffff1673ffffffffffffffffffffffffffffffffffffffff16815260200190815260200160002060008473ffffffffffffffffffffffffffffffffffffffff1673ffffffffffffffffffffffffffffffffffffffff16815260200190815260200160002060006101000a81548160ff0219169083151502179055508173ffffffffffffffffffffffffffffffffffffffff168373ffffffffffffffffffffffffffffffffffffffff167f17307eab39ab6107e8899845ad3d59bd9653f200f220920489ca2b5937696c318360405161138f91906124c3565b60405180910390a3505050565b6113a7848484610ef8565b6113b38484848461163f565b6113f2576040517f08c379a00000000000000000000000000000000000000000000000000000000081526004016113e990612520565b60405180910390fd5b50505050565b606060405180602001604052806000815250905090565b606061141a82610d57565b60006114246113f8565b90506000815111611444576040518060200160405280600081525061146f565b8061144e846117d6565b60405160200161145f929190612438565b6040516020818303038152906040525b915050919050565b61148183836118fa565b61148e600084848461163f565b6114cd576040517f08c379a00000000000000000000000000000000000000000000000000000000081526004016114c490612520565b60405180910390fd5b505050565b60008073ffffffffffffffffffffffffffffffffffffffff166114f4836111f2565b73ffffffffffffffffffffffffffffffffffffffff1614159050919050565b600181111561163357600073ffffffffffffffffffffffffffffffffffffffff168473ffffffffffffffffffffffffffffffffffffffff16146115a75780600360008673ffffffffffffffffffffffffffffffffffffffff1673ffffffffffffffffffffffffffffffffffffffff168152602001908152602001600020600082825461159f91906127bb565b925050819055505b600073ffffffffffffffffffffffffffffffffffffffff168373ffffffffffffffffffffffffffffffffffffffff16146116325780600360008573ffffffffffffffffffffffffffffffffffffffff1673ffffffffffffffffffffffffffffffffffffffff168152602001908152602001600020600082825461162a9190612765565b925050819055505b5b50505050565b50505050565b60006116608473ffffffffffffffffffffffffffffffffffffffff16611b18565b156117c9578373ffffffffffffffffffffffffffffffffffffffff1663150b7a02611689610da2565b8786866040518563ffffffff1660e01b81526004016116ab9493929190612477565b602060405180830381600087803b1580156116c557600080fd5b505af19250505080156116f657506040513d601f19601f820116820180604052508101906116f3919061211e565b60015b611779573d8060008114611726576040519150601f19603f3d011682016040523d82523d6000602084013e61172b565b606091505b50600081511415611771576040517f08c379a000000000000000000000000000000000000000000000000000000000815260040161176890612520565b60405180910390fd5b805181602001fd5b63150b7a0260e01b7bffffffffffffffffffffffffffffffffffffffffffffffffffffffff1916817bffffffffffffffffffffffffffffffffffffffffffffffffffffffff1916149150506117ce565b600190505b949350505050565b6060600060016117e584611b3b565b01905060008167ffffffffffffffff81111561182a577f4e487b7100000000000000000000000000000000000000000000000000000000600052604160045260246000fd5b6040519080825280601f01601f19166020018201604052801561185c5781602001600182028036833780820191505090505b509050600082602001820190505b6001156118ef578080600190039150507f3031323334353637383961626364656600000000000000000000000000000000600a86061a8153600a85816118d9577f4e487b7100000000000000000000000000000000000000000000000000000000600052601260045260246000fd5b04945060008514156118ea576118ef565b61186a565b819350505050919050565b600073ffffffffffffffffffffffffffffffffffffffff168273ffffffffffffffffffffffffffffffffffffffff16141561196a576040517f08c379a000000000000000000000000000000000000000000000000000000000815260040161196190612600565b60405180910390fd5b611973816114d2565b156119b3576040517f08c379a00000000000000000000000000000000000000000000000000000000081526004016119aa90612560565b60405180910390fd5b6119c1600083836001611513565b6119ca816114d2565b15611a0a576040517f08c379a0000000000000000000000000000000000000000000000000000000008152600401611a0190612560565b60405180910390fd5b6001600360008473ffffffffffffffffffffffffffffffffffffffff1673ffffffffffffffffffffffffffffffffffffffff16815260200190815260200160002060008282540192505081905550816002600083815260200190815260200160002060006101000a81548173ffffffffffffffffffffffffffffffffffffffff021916908373ffffffffffffffffffffffffffffffffffffffff160217905550808273ffffffffffffffffffffffffffffffffffffffff16600073ffffffffffffffffffffffffffffffffffffffff167fddf252ad1be2c89b69c2b068fc378daa952ba7f163c4a11628f55a4df523b3ef60405160405180910390a4611b14600083836001611639565b5050565b6000808273ffffffffffffffffffffffffffffffffffffffff163b119050919050565b600080600090507a184f03e93ff9f4daa797ed6e38ed64bf6a1f0100000000000000008310611bbf577a184f03e93ff9f4daa797ed6e38ed64bf6a1f0100000000000000008381611bb5577f4e487b7100000000000000000000000000000000000000000000000000000000600052601260045260246000fd5b0492506040810190505b6d04ee2d6d415b85acef81000000008310611c22576d04ee2d6d415b85acef81000000008381611c18577f4e487b7100000000000000000000000000000000000000000000000000000000600052601260045260246000fd5b0492506020810190505b662386f26fc100008310611c7757662386f26fc100008381611c6d577f4e487b7100000000000000000000000000000000000000000000000000000000600052601260045260246000fd5b0492506010810190505b6305f5e1008310611cc6576305f5e1008381611cbc577f4e487b7100000000000000000000000000000000000000000000000000000000600052601260045260246000fd5b0492506008810190505b6127108310611d11576127108381611d07577f4e487b7100000000000000000000000000000000000000000000000000000000600052601260045260246000fd5b0492506004810190505b60648310611d5a5760648381611d50577f4e487b7100000000000000000000000000000000000000000000000000000000600052601260045260246000fd5b0492506002810190505b600a8310611d69576001810190505b80915050919050565b828054611d7e906128a5565b90600052602060002090601f016020900481019282611da05760008555611de7565b82601f10611db957805160ff1916838001178555611de7565b82800160010185558215611de7579182015b82811115611de6578251825591602001919060010190611dcb565b5b509050611df49190611df8565b5090565b5b80821115611e11576000816000905550600101611df9565b5090565b6000611e28611e23846126c0565b61269b565b905082815260208101848484011115611e4057600080fd5b611e4b848285612863565b509392505050565b6000611e66611e61846126f1565b61269b565b905082815260208101848484011115611e7e57600080fd5b611e89848285612863565b509392505050565b600081359050611ea081612d0b565b92915050565b600081359050611eb581612d22565b92915050565b600081359050611eca81612d39565b92915050565b600081519050611edf81612d39565b92915050565b600082601f830112611ef657600080fd5b8135611f06848260208601611e15565b91505092915050565b600082601f830112611f2057600080fd5b8135611f30848260208601611e53565b91505092915050565b600081359050611f4881612d50565b92915050565b600060208284031215611f6057600080fd5b6000611f6e84828501611e91565b91505092915050565b60008060408385031215611f8a57600080fd5b6000611f9885828601611e91565b9250506020611fa985828601611e91565b9150509250929050565b600080600060608486031215611fc857600080fd5b6000611fd686828701611e91565b9350506020611fe786828701611e91565b9250506040611ff886828701611f39565b9150509250925092565b6000806000806080858703121561201857600080fd5b600061202687828801611e91565b945050602061203787828801611e91565b935050604061204887828801611f39565b925050606085013567ffffffffffffffff81111561206557600080fd5b61207187828801611ee5565b91505092959194509250565b6000806040838503121561209057600080fd5b600061209e85828601611e91565b92505060206120af85828601611ea6565b9150509250929050565b600080604083850312156120cc57600080fd5b60006120da85828601611e91565b92505060206120eb85828601611f39565b9150509250929050565b60006020828403121561210757600080fd5b600061211584828501611ebb565b91505092915050565b60006020828403121561213057600080fd5b600061213e84828501611ed0565b91505092915050565b6000806040838503121561215a57600080fd5b600083013567ffffffffffffffff81111561217457600080fd5b61218085828601611f0f565b925050602061219185828601611f39565b9150509250929050565b6000602082840312156121ad57600080fd5b60006121bb84828501611f39565b91505092915050565b6121cd816127ef565b82525050565b6121dc81612801565b82525050565b60006121ed82612722565b6121f78185612738565b9350612207818560208601612872565b612210816129de565b840191505092915050565b60006122268261272d565b6122308185612749565b9350612240818560208601612872565b612249816129de565b840191505092915050565b600061225f8261272d565b612269818561275a565b9350612279818560208601612872565b80840191505092915050565b6000612292602d83612749565b915061229d826129ef565b604082019050919050565b60006122b5603283612749565b91506122c082612a3e565b604082019050919050565b60006122d8602583612749565b91506122e382612a8d565b604082019050919050565b60006122fb601c83612749565b915061230682612adc565b602082019050919050565b600061231e602483612749565b915061232982612b05565b604082019050919050565b6000612341601983612749565b915061234c82612b54565b602082019050919050565b6000612364602983612749565b915061236f82612b7d565b604082019050919050565b6000612387602e83612749565b915061239282612bcc565b604082019050919050565b60006123aa602083612749565b91506123b582612c1b565b602082019050919050565b60006123cd601883612749565b91506123d882612c44565b602082019050919050565b60006123f0602183612749565b91506123fb82612c6d565b604082019050919050565b6000612413603d83612749565b915061241e82612cbc565b604082019050919050565b61243281612859565b82525050565b60006124448285612254565b91506124508284612254565b91508190509392505050565b600060208201905061247160008301846121c4565b92915050565b600060808201905061248c60008301876121c4565b61249960208301866121c4565b6124a66040830185612429565b81810360608301526124b881846121e2565b905095945050505050565b60006020820190506124d860008301846121d3565b92915050565b600060208201905081810360008301526124f8818461221b565b905092915050565b6000602082019050818103600083015261251981612285565b9050919050565b60006020820190508181036000830152612539816122a8565b9050919050565b60006020820190508181036000830152612559816122cb565b9050919050565b60006020820190508181036000830152612579816122ee565b9050919050565b6000602082019050818103600083015261259981612311565b9050919050565b600060208201905081810360008301526125b981612334565b9050919050565b600060208201905081810360008301526125d981612357565b9050919050565b600060208201905081810360008301526125f98161237a565b9050919050565b600060208201905081810360008301526126198161239d565b9050919050565b60006020820190508181036000830152612639816123c0565b9050919050565b60006020820190508181036000830152612659816123e3565b9050919050565b6000602082019050818103600083015261267981612406565b9050919050565b60006020820190506126956000830184612429565b92915050565b60006126a56126b6565b90506126b182826128d7565b919050565b6000604051905090565b600067ffffffffffffffff8211156126db576126da6129af565b5b6126e4826129de565b9050602081019050919050565b600067ffffffffffffffff82111561270c5761270b6129af565b5b612715826129de565b9050602081019050919050565b600081519050919050565b600081519050919050565b600082825260208201905092915050565b600082825260208201905092915050565b600081905092915050565b600061277082612859565b915061277b83612859565b9250827fffffffffffffffffffffffffffffffffffffffffffffffffffffffffffffffff038211156127b0576127af612951565b5b828201905092915050565b60006127c682612859565b91506127d183612859565b9250828210156127e4576127e3612951565b5b828203905092915050565b60006127fa82612839565b9050919050565b60008115159050919050565b60007fffffffff0000000000000000000000000000000000000000000000000000000082169050919050565b600073ffffffffffffffffffffffffffffffffffffffff82169050919050565b6000819050919050565b82818337600083830152505050565b60005b83811015612890578082015181840152602081019050612875565b8381111561289f576000848401525b50505050565b600060028204905060018216806128bd57607f821691505b602082108114156128d1576128d0612980565b5b50919050565b6128e0826129de565b810181811067ffffffffffffffff821117156128ff576128fe6129af565b5b80604052505050565b600061291382612859565b91507fffffffffffffffffffffffffffffffffffffffffffffffffffffffffffffffff82141561294657612945612951565b5b600182019050919050565b7f4e487b7100000000000000000000000000000000000000000000000000000000600052601160045260246000fd5b7f4e487b7100000000000000000000000000000000000000000000000000000000600052602260045260246000fd5b7f4e487b7100000000000000000000000000000000000000000000000000000000600052604160045260246000fd5b6000601f19601f8301169050919050565b7f4552433732313a2063616c6c6572206973206e6f7420746f6b656e206f776e6560008201527f72206f7220617070726f76656400000000000000000000000000000000000000602082015250565b7f4552433732313a207472616e7366657220746f206e6f6e20455243373231526560008201527f63656976657220696d706c656d656e7465720000000000000000000000000000602082015250565b7f4552433732313a207472616e736665722066726f6d20696e636f72726563742060008201527f6f776e6572000000000000000000000000000000000000000000000000000000602082015250565b7f4552433732313a20746f6b656e20616c7265616479206d696e74656400000000600082015250565b7f4552433732313a207472616e7366657220746f20746865207a65726f2061646460008201527f7265737300000000000000000000000000000000000000000000000000000000602082015250565b7f4552433732313a20617070726f766520746f2063616c6c657200000000000000600082015250565b7f4552433732313a2061646472657373207a65726f206973206e6f74206120766160008201527f6c6964206f776e65720000000000000000000000000000000000000000000000602082015250565b7f45524337323155524953746f726167653a2055524920736574206f66206e6f6e60008201527f6578697374656e7420746f6b656e000000000000000000000000000000000000602082015250565b7f4552433732313a206d696e7420746f20746865207a65726f2061646472657373600082015250565b7f4552433732313a20696e76616c696420746f6b656e2049440000000000000000600082015250565b7f4552433732313a20617070726f76616c20746f2063757272656e74206f776e6560008201527f7200000000000000000000000000000000000000000000000000000000000000602082015250565b7f4552433732313a20617070726f76652063616c6c6572206973206e6f7420746f60008201527f6b656e206f776e6572206f7220617070726f76656420666f7220616c6c000000602082015250565b612d14816127ef565b8114612d1f57600080fd5b50565b612d2b81612801565b8114612d3657600080fd5b50565b612d428161280d565b8114612d4d57600080fd5b50565b612d5981612859565b8114612d6457600080fd5b5056fea264697066735822122083a8a8014ebd8b1ff4893b9cef50f3bb91a25bcf7aa7aac986fd98a9c71ea3cc64736f6c63430008040033",
  "linkReferences": {},
  "deployedLinkReferences": {}
}